:020000040800F2
:10000000000002201506000875050008810500089B
:100010008905000891050008990500080000000006
:100020000000000000000000000000007D02000849
:10003000A105000800000000B9020008AD05000895
:1000400065060008650600086506000865060008E4
:1000500065060008650600086506000865060008D4
:1000600065060008650600086506000865060008C4
:1000700065060008650600086506000865060008B4
:1000800065060008650600086506000865060008A4
:100090006506000865060008650600086506000894
:1000A0006506000865060008650600086506000884
:1000B0006506000865060008650600086506000874
:1000C0006506000865060008650600086506000864
:1000D0006506000865060008650600086506000854
:1000E0006506000865060008650600086506000844
:1000F0006506000865060008650600086506000834
:100100006506000865060008650600086506000823
:100110006506000865060008650600086506000813
:100120006506000865060008650600086506000803
:1001300065060008650600086506000865060008F3
:1001400065060008650600086506000865060008E3
:1001500065060008650600086506000865060008D3
:1001600065060008650600086506000865060008C3
:100170006506000865060008650600080000000026
:040180006506000808
:1001840010B5054C237833B9044B13B10448AFF3CD
:1001940000800123237010BD300400200000000003
:1001A400A8070008084B10B51BB108480849AFF36D
:1001B40000800848036803B910BD074B002BFBD02F
:1001C400BDE81040184700BF00000000A807000861
:1001D40034040020300400200000000080B485B006
:1001E40000AF786039607B685B68FB603B68FA68E5
:1001F4005A60FB689A683B689A60FB689B683A6837
:100204005A60FB683A689A603B687A681A617B684E
:100214001B685A1C7B681A601437BD465DF8047B62
:10022400704700BF80B485B000AF78607B685B68BE
:100234007A6892689A607B689B687A6852685A60A8
:100244007B681B69FB60FB685A687B689A4203D130
:100254007B689A68FB685A607B6800221A61FB68B5
:100264001B685A1EFB681A60FB681B681846143723
:10027400BD465DF8047B7047064B19680868B0E812
:10028400F00F80F309884FF0000080F311884EF0DE
:100294000D0E70474C040020EFF311804FF0500115
:1002A40081F3118870470023184600BF80F311883A
:1002B400704700BFEFF309800C4B1A6820E9F00F78
:1002C40010602DE908404FF0500080F3118800F0D1
:1002D400F1F84FF0000080F31188BDE80840196878
:1002E4000868B0E8F00F80F3098870474C040020D8
:1002F40080B500AFFFF7D0FF00F00EF80346002BE7
:1003040003D0044B4FF080521A600020FFF7CEFF59
:1003140080BD00BF04ED00E080B586B000AF0023CF
:100324007B61594B1B68002B40F09D80574B1B6829
:100334000133564A1360554B1B683B613B69002BE4
:100344002ED1534B1B681B68002B02D0FFF7A4FF70
:10035400FEE74F4B1B68FB604E4B1B684C4A136017
:100364004C4AFB6813604C4B1B6801334A4A1360C8
:10037400474B1B681B68002B01D1012300E00023BD
:10038400002B04D0454B4FF0FF321A6008E0404B7D
:100394001B68DB68DB68BB60BB685B683F4A136053
:1003A4003E4B1B683A699A424ED3394B1B681B6813
:1003B400002B01D1012300E00023002B04D0374B94
:1003C4004FF0FF321A603FE0314B1B68DB68DB689B
:1003D400BB60BB685B687B603A697B689A4203D206
:1003E4002E4A7B6813602FE0BB6804331846FFF77E
:1003F40019FFBB689B6A002B04D0BB6818331846EE
:10040400FFF710FFBB68DA6A254B1B689A4203D9D1
:10041400BB68DB6A224A1360BB68DA6A13469B0036
:1004240013449B001F4A1A44BB6804331046194600
:10043400FFF7D4FEBB68DA6A1B4B1B68DB6A9A427F
:1004440001D301237B61B0E7174B1B68DA6A1549B6
:1004540013469B0013449B000B441B68012B07D9D4
:1004640001237B6104E0114B1B6801330F4A1360C5
:100474000F4B1B68002B01D001237B617B6918465D
:100484001837BD4680BD00BFEC040020E404002002
:10049400DC040020E0040020F80400200000002018
:1004A400E8040020500400204C040020F004002044
:1004B400F404002080B582B000AF224B1B68002BEF
:1004C40003D0214B01221A6038E01F4B00221A602E
:1004D4000BE01E4B1B68002B02D1FFF7DDFEFEE78D
:1004E4001A4B1B68013B194A1360184B1A681849C8
:1004F40013469B0013449B000B441B68002BE8D05D
:10050400124B1A6813469B0013449B00104A134471
:100514007B607B685B685A687B685A607B685A6852
:100524007B6808339A4204D17B685B685A687B68AD
:100534005A607B685B68DB68064A13600837BD460F
:1005440080BD00BFEC040020F4040020E804002077
:10055400500400204C04002080B483B000AF7860C5
:100564003960002318460C37BD465DF8047B70479C
:1005740080B400AFBD465DF8047B704780B400AF23
:10058400FEE700BF80B400AFFEE700BF80B400AF59
:10059400FEE700BF80B400AFFEE700BF80B400AF49
:1005A400BD465DF8047B704780B500AFFFF7A0FE41
:1005B40080BD00BF80B400AF124A124B1B6843F0E9
:1005C400010313600F4B00229A600E4A0D4B1B6807
:1005D40023F0847323F4803313600A4B0A4A5A606D
:1005E400084A084B1B6823F480231360054B002240
:1005F400DA60064B4FF000629A60BD465DF8047BFA
:10060400704700BF003802401030002400ED00E0C5
:10061400DFF834D0002103E00C4B5B584350043125
:100624000B480C4B42189A42F6D30B4A02E00023C3
:1006340042F8043B094B9A42F9D3FFF7BBFF00F0A1
:1006440011F8FFF789FF704700000220DC0700085B
:10065400000000203004002030040020FC040020AE
:10066400FEE7000070B50F4E0F4D761BB61018BF95
:10067400002405D0013455F8043B9847A642F9D12B
:100684000A4E0B4D00F08EF8761BB61018BF0024EE
:1006940006D0013455F8043B9847A642F9D170BD01
:1006A40070BD00BFD0070008D0070008D8070008B5
:1006B400D0070008024B13B1024800F005B8704798
:1006C40000000000D9060008014600200246034647
:1006D40000F016B838B5084B084DED1AAC1018BF29
:1006E400ED1805D0013C55F8043D9847002CF9D18C
:1006F400BDE8384000F05CB8D8070008DC07000803
:100704002DE9F047254C064625688846D5F848412A
:1007140092469946C4B360681F2817DC411C76B121
:1007240004EB8003C3F888A0D4F8885101228240E6
:100734001543022EC4F88851C3F808911ED0831CB7
:100744006160002044F82380BDE8F087144B03B3B4
:100754004FF4C870AFF300800446D0B1D5F84831E7
:10076400002784E888003846C5F848410121C4F8C8
:100774008871C4F88C71002EE1D0D1E7D4F88C31A3
:100784001A43C4F88C21DAE705F5A674C5F8484184
:10079400C1E74FF0FF30BDE8F08700BFC407000891
:1007A40000000000F8B500BFF8BC08BC9E467047C6
:0C07B400F8B500BFF8BC08BC9E467047BA
:0807C0004300000008000020C6
:0807C80094FDFF7F0100000019
:0807D000B9060008A9010008A8
:0407D800850100088F
:1007DC00FFFFFFFF0000000000000000F4020020FB
:1007EC005C030020C4030020000000000000000097
:1007FC0000000000000000000000000000000000ED
:10080C00000000000000000000000000C00700080D
:10081C0000000000000000000000000000000000CC
:10082C0000000000000000000000000000000000BC
:10083C0000000000000000000000000000000000AC
:10084C00000000000000000000000000000000009C
:10085C00000000000000000000000000000000008C
:10086C00000000000000000000000000000000007C
:10087C00000000000000000000000000000000006C
:10088C0001000000000000000E33CDAB34126DE609
:10089C00ECDE05000B000000000000000000000072
:1008AC00000000000000000000000000000000003C
:1008BC00000000000000000000000000000000002C
:1008CC00000000000000000000000000000000001C
:1008DC00000000000000000000000000000000000C
:0400000508000615D4
:00000001FF
